:020000040800F2
:10000000A00F002029020008D32A00084127000879
:10001000D12A00080F050008F13300080000000095
:10002000000000000000000000000000E12D0008BA
:100030001D06000800000000592C0008E32D0008F0
:10004000430200084302000843020008430200087C
:10005000430200084302000843020008430200086C
:1000600043020008430200081F060008430200087C
:10007000710500084302000843020008430200081B
:10008000430200084302000843020008430200083C
:10009000110500084302000843020008430200085B
:1000A000430200084302000843020008430200081C
:1000B000430200084302000843020008430200080C
:1000C00043020008430200084302000843020008FC
:1000D0004302000831330008430200083D330008A2
:1000E00043020008430200084302000843020008DC
:1000F00043020008430200084302000843020008CC
:1001000043020008430200084302000843020008BB
:1001100043020008430200084302000843020008AB
:100120007D050008430200088905000895050008C0
:10013000430200084302000843020008430200088B
:100140001D0500084302000843020008430200089E
:10015000430200084302000843020008430200086B
:10016000430200084302000843020008430200085B
:100170004302000843020008430200080000000098
:10018000430200084302000800F002F800F03CF8C7
:100190000AA090E8000C82448344AAF10107DA45E2
:1001A00001D100F031F8AFF2090EBAE80F0013F0F8
:1001B000010F18BFFB1A43F001031847203C000051
:1001C000403C0000103A24BF78C878C1FAD85207E2
:1001D00024BF30C830C144BF04680C6070470000C1
:1001E0000023002400250026103A28BF78C1FBD840
:1001F000520728BF30C148BF0B6070471FB503F0DE
:10020000B3FD1FBD10B510BD00F0CFF81146FFF7CC
:10021000F5FF03F0FFFA00F0EDF803B4FFF7F2FF8B
:1002200003BC00F0F5F80000094880470948004782
:10023000FEE7FEE7FEE7FEE7FEE7FEE7FEE7FEE796
:10024000FEE7FEE704480549054A064B70470000F3
:100250007D2E000889010008A0090020A00F0020C1
:10026000A00B0020A00B002053EA020C00F06980D4
:100270002DE9F04B4FF00006002B1FBFB3FA83F5BA
:1002800003FA05F424FA05F65E4012BF1643B2FAEB
:1002900082F502FA05F4C5F120051EBF22FA05FC1D
:1002A00044EA0C04203556EA044C4FEA144418BFC3
:1002B000641C4FF000084FF00009904271EB030CF2
:1002C00039D3002919BFB1FA81F701FA07F6B0FA5C
:1002D00080F700FA07F6C7F120071EBF20FA07FCD7
:1002E00046EA0C062037B6FBF4FCA7EB0507103FE7
:1002F00007F01F0BCBF120060CFA0BFB2CFA06F6CD
:1003000044BFB3460026202FA4BF5E464FF0000B2B
:100310005BEA060C08BF4FF0010B19EB0B09ABFBB6
:10032000027C48EB0608C01B06FB02CC0BFB03CC8F
:1003300071EB0C01C1E70B46024641464846BDE859
:10034000F08B13B54FF000004FF00001AFF30080C9
:10035000BDE81C4070474FF0000200B513469446BC
:100360009646203922BFA0E80C50A0E80C50B1F10D
:100370002001BFF4F7AF090728BFA0E80C5048BF21
:100380000CC05DF804EB890028BF40F8042B08BFBF
:10039000704748BF20F8022B11F0804F18BF00F8BB
:1003A000012B7047704770477047754600F02CF876
:1003B000AE4605006946534620F00700854618B052
:1003C00020B5FFF73FFFBDE820404FF000064FF09B
:1003D00000074FF000084FF0000B21F00701AC467A
:1003E000ACE8C009ACE8C009ACE8C009ACE8C00999
:1003F0008D46704710B50446AFF300802046BDE837
:100400001040FFF70ABF0000004870474009002075
:1004100001491820ABBEFEE726000200704700002D
:1004200001221021014801F067B8000000000240DD
:1004300000221021014801F05FB8000000000240D6
:100440007047000001221146014801F055B8000034
:100450000004024000220121014801F04DB80000D3
:1004600000040240704730B504464FF47A7502E04C
:10047000284600F004F8641EA4B2F9D230BD70B56D
:100480004FF0E02400226569A8214843A169A369CF
:100490008B42FCD002D2A1EB030102E0A5EB0306E4
:1004A00031440A4419468242F1D370BD10B5FFF7BA
:1004B000C7FFFFF7D7FF02F0BDFF044603F042F885
:1004C000204310BD10B50C4640F0800000F006F847
:1004D000552000F003F8207010BD000001B582B077
:1004E0004FF47A700090012301AA02A9024801F09A
:1004F00027FC9DF804000EBDAC00002010B50C4692
:10050000FFF7ECFF2046BDE81040FFF7E7BFFEE72E
:10051000014800F070BA00005C000020014800F0C3
:100520006ABA00008400002038B50E4C40F2FF1576
:1005300025600025A560E560082525610A4C050AAF
:1005400025706070080AA070E170100A2071627155
:10055000180AA071E3716B4622460249034800F075
:10056000EBF838BD30040020150000205C000020AE
:10057000014800F06FBD000044030020014800F076
:1005800069BD000004010020014800F063BD0000C7
:10059000E4020020014800F05DBD0000640100207D
:1005A00001681823CAB2103AB2FBF3F2054B6FF39D
:1005B0000901032A9B5CC36500D9091D81650846B2
:1005C00070470000723D000810B5014600208B699D
:1005D0008A6A4FF0C07453B1B3F5005F15D072B1A1
:1005E000012A0CD0022A0AD0032A09D104E01AB148
:1005F000012A06D0022A03D1C96AC90100D5012007
:1006000010BDC96AA142FAD010BD002AF7D0012A54
:10061000F2D0022AF3D0032AF3D010BD7047102085
:1006200000F066BE72B6FEE700EE100A9FED211ADA
:1006300010B5B8EEC00A204C20EE010A84ED1E0A67
:10064000BCEEC00A10EE100A81B21C480068008897
:1006500003F014F984ED1F0AD4ED1E0A204670EE53
:10066000C01A21EE811A84ED211A03F045F884EDB9
:10067000200AF0EE400A94ED210A04F1300002F065
:1006800029FA84ED220ABDEEC00A00231A4610EEB4
:10069000100A194600B200EE100AB8EEC00A84ED46
:1006A000230ABDEEC00ABDE8104010EE100A00B2E9
:1006B000FFF73ABFDB0F493AB00800202C000020BA
:1006C000DFED0E0A10B5B0EE602AF1EE041AB2EEBC
:1006D000001AB2EE040A0A4803F058F80848DFEDA1
:1006E000090A9FED090A094A0021303002F086FA12
:1006F00002F0FEFF0649086010BD00000000000087
:10070000B008002000409C450060EA46D03D00084B
:100710002C00002090F82020012A07D0022A05D0C2
:10072000416A41F4802141620120704700684269BA
:100730000A43426100207047F0B590F820500468E9
:10074000A468012D05D0022D03D0416A41F4802117
:100750004DE014F0406F01D1E50045D5C4F30164CC
:100760000125A5401D608D684FF4C0739DB1CE6812
:1007700035434E6845EAC605066803EB0417F55194
:100780004FF4C275076805EB04150E697E51097DAB
:10079000012905D009E00E88CD6845EA4655EBE70A
:1007A00001684E5946F480764E511179D2F80550C1
:1007B0004FF4C67641EA0521056806EB0416A951F7
:1007C0001178D2F801204FF4C47541EA0221026881
:1007D00005EB04155151006803EB0411425842F037
:1007E000010242500020F0BD416A41F40011416213
:1007F0000120F0BD10B590F82020012A07D0022A70
:1008000005D0416A41F480214162012010BD3B487E
:10081000D0F8002242F00102C0F80022D0F80022F5
:1008200022F47C52C0F80022D0F800224B6A42EA3F
:100830000322C0F800220A7D02F01F0301229A4021
:10084000D0F81C329343C0F81C32CB69B3B9D0F84E
:100850000C329343C0F80C328C894B6864F31F430D
:100860004C6900EBC404C4F840320C890B6864F393
:100870001F434C6900EBC404C4F84432CB69012B1C
:1008800016D1D0F80C321343C0F80C320C884B68E8
:1008900064F31F434C6900EBC404C4F840320C8974
:1008A000CB6864F31F434C6900EBC404C4F84432C2
:1008B0008B69002BD0F804320ED01343C0F80432F9
:1008C0000B69002BD0F8143208D01343C0F814324F
:1008D000096A012904D008E09343EFE79343F5E761
:1008E000D0F81C121143C0F81C12D0F8001221F0ED
:1008F0000101C0F80012002010BD0000006400409B
:10090000704770B590F82040012C05D0022C03D020
:10091000416A41F4802128E0046809B32469A407EE
:1009200020D04FF4D874056804EB01142D5915F04C
:100930000405956005682D591AD0ED0855600568C5
:100940002C5904F00204D4604FF4DA74056804EB07
:1009500001142E5906F00F06082E0CD308250DE0C1
:10096000E468DCE7416A41F400114162012070BD96
:100970006D0D1560E3E72D5905F00F05156105684C
:100980002D59C5F30725956105682C59240C546130
:100990004FF4DC72046802EB0112A4581C70046866
:1009A000A458240A5C700468A458240C9C70046841
:1009B000A258120EDA704FF4DE72046802EB0112D4
:1009C000A4581C710468A458240A5C710468A458D3
:1009D000240C9C710468A258120EDA71006829B1C7
:1009E000016941F020010161002070BDC16841F042
:1009F0002001C160F8E72DE9F05F0546006800249A
:100A00004669D0F804908768D0F80CB0D0F810A0F0
:100A1000D0F81880F10748D0F90714D0012181607F
:100A2000B80703D5284600F0B4FA0CE0780702D5E1
:100A30004FF4006407E0380702D54FF4805402E019
:100A4000284600F0A5FAF80516D529684FF48070FD
:100A50008860B80503D5284600F09DFA0CE07805BB
:100A600002D544F4005407E0380502D544F480442C
:100A700002E0284600F08EFAF80316D529684FF4F4
:100A800080308860B80303D5284600F086FA0CE071
:100A9000780302D544F4004407E0380302D544F457
:100AA000803402E0284600F077FA300707D55FEA85
:100AB000CB6004D52968102044F40074C860700726
:100AC0004FF0080707D55FEA0B7004D52868C760A8
:100AD000284600F099F9B00706D52868C068800755
:100AE00002D0284600F092F9700607D55FEACA6086
:100AF00004D52968102044F480640861B00607D545
:100B00005FEA0A7004D528680761284600F010FAE9
:100B1000F00606D528680069800702D0284600F054
:100B200008FAB00308D55FEAC96005D52968102026
:100B30004860284600F0FEF9F00307D55FEA097027
:100B400004D528684760284600F028FA300446D5C6
:100B50005FEA497040D5F00504D55FEAC87001D05E
:100B600044F00104B00504D55FEA887001D544F073
:100B70000204700504D55FEA487001D544F004040E
:100B8000300529D518F0700F26D008F070004028E5
:100B900015D006DC102809D020280AD0302816D11C
:100BA0000AE050280ED0602811D10EE044F008046D
:100BB0000DE044F010040AE044F0200407E044F0A3
:100BC000400404E044F0800401E044F480742868A8
:100BD000816921F070018161296804204860002C3E
:100BE00005D0686A204368622846FFF789FEBDE8A1
:100BF000F09F70B5040003D094F8200010B104E019
:100C0000012070BD204600F081F82068016841F0A5
:100C10000101016000F076FC0546052604E000F0C5
:100C200071FC401B0A2811D820684068C007F6D024
:100C30002068016821F00201016000F063FC0546B4
:100C40000BE000F05FFC401B0A2806D9606A40F404
:100C50000030606284F82060D2E720684068800736
:100C6000EFD4207E0128206801683DD021F080016A
:100C70000160607E01282068016838D021F04001C1
:100C80000160A07E01282068016833D021F0200196
:100C90000160E07E0128206801682ED041F010013B
:100CA0000160207F01282068016829D021F0080117
:100CB0000160607F01282068016824D021F00401D0
:100CC0000160D4E902010843D4E904121143084346
:100CD0006168491E08432168C861002060620120E4
:100CE00084F82000002070BD41F08001C0E741F091
:100CF0004001C5E741F02001CAE721F01001CFE72C
:100D000041F00801D4E741F00401D9E7F0B587B01C
:100D1000044614216846FFF71EFB364B3648DFF8C1
:100D2000D0E01968D4F800C0334A03250226092709
:100D300010300024491CF44522D11960012907D143
:100D4000016841F000710160006800F000700590DA
:100D5000106840F0080010601068CDE9005600F0FF
:100D60000800CDE9047069462448CDE9024500F049
:100D7000CBFA00220521142000F032FC142032E0CE
:100D8000DFF87CE0F44530D1D0F800C04CF0806C46
:100D9000C0F800C0D0F800C001290CF0806CCDF87C
:100DA00014C0196007D1016841F00071016000684A
:100DB00000F000700590106840F0020010601068AC
:100DC00002AB00F0020005906020CDE9000683E848
:100DD000B00069460B4800F097FA00220521402038
:100DE00000F0FEFB402000F0EDFB07B0F0BD00007E
:100DF000006400400000002030380240000C024037
:100E000000680040000402407047000070B50021F7
:100E10002DED028B8EB004AB06AAFFF772FD06988B
:100E20004FF480535A429FED3E8BA0F201200A28D6
:100E300019D2DFE800F00505050505050518184677
:100E40003949C0B2087000EB8001384800EB8104DA
:100E50002569322D0BD86D1C2561BDF8102052BAC2
:100E600020F82120E2810EB0BDEC028B70BD30F87D
:100E700021502581BDF810506DBA20F82150BDF8E1
:100E800012506DBA6580BDF814506DBAA5809DF8FA
:100E90001650E58030F82150B4F90860AD1B9D4232
:100EA00002DD63895B1E638130F82130B4F908509C
:100EB0005B1B934202DA6289521C628130F8210086
:100EC0001EE01A4CBC34B4F900102181BDF81000AA
:100ED00040BA2080BDF81250411A6DBA6580BDF845
:100EE000145099426DBAA5809DF81650E58002DD38
:100EF00063895B1E6381914202DA6189491C6181C9
:100F0000B4F90A1000EB4130E189401A02F017FEF3
:100F100053EC182B02F02AFE02F0E2FDA081A2E7BA
:100F2000841C12AEC8BF623F14000020A40300203E
:100F3000704770477047000070B5044690F8200075
:100F4000012804D0606A40F40020606218E00220AA
:100F500084F820002068016821F00101016000F0A0
:100F6000D1FA05460EE000BF00F0CCFA401B0A287B
:100F700008D9606A40F400306062052084F82000DF
:100F8000012070BD20684068C007EDD1606270BD6F
:100F900070477047704770477047704770472DE93A
:100FA000F0410446876D00F0ADFA064694F835002E
:100FB0000025022806D08020606584F83450012086
:100FC000BDE8F0812068016821F016010160206809
:100FD000416921F080014161206C08B9A06C20B109
:100FE0002068016821F0080101602068016821F093
:100FF000010101600CE000F085FA801B052807D98B
:1010000020206065032084F8350084F83450D7E749
:1010100020680068C007EED194F85C103F2088403B
:10102000B860012084F8350084F834500020C7E708
:1010300090F83510022903D08021416501207047C6
:10104000052180F835100068016821F00101016078
:10105000002070472DE9F84304464FF00009CDF811
:10106000009063484FF41651A56D0068B0FBF1F78E
:101070002E6894F85C10082000FA01F131420FD07C
:1010800021680A6852070BD50A6822F004020A6038
:1010900094F85C108840A860606D40F001006065C5
:1010A00094F85C104FF0010808FA01F0304208D0C3
:1010B00021684969090604D5A860606D40F0020006
:1010C000606594F85C1004208840304208D02168A4
:1010D0000968890704D5A860606D40F00400606568
:1010E00094F85C1010208840304218D021680968BC
:1010F000090714D5A86020680168490304D5006871
:10110000000308D5A16C07E00168C90503D4016894
:1011100021F008010160216C09B12046884794F84C
:101120005C1020208840304231D021680968C9060F
:101130002DD5A86094F8350005282068016806D0F0
:10114000490347D5006800031DD4616C1CE021F001
:10115000160101602068416921F080014161206C25
:1011600008B9A06C20B12068016821F00801016075
:1011700094F85C103F208840A86084F8358084F89B
:101180003490216D1FE0E16B09B120468847606D06
:1011900000282BD0606DC00714D0052084F83500DE
:1011A0002068016821F0010101600098401C009056
:1011B000B84203D820680068C007F6D184F83580AB
:1011C00084F83490E16C002910D001B02046BDE8CD
:1011D000F04308470168C905D5D4016821F0100122
:1011E000016084F8358084F83490CCE7BDE8F8835A
:1011F000100000202DE9F041044600F083F9064676
:101200005CB1022084F83500002584F83450206851
:10121000016821F0010101600DE00120BDE8F081CD
:1012200000F070F9801B052805D920206065032097
:1012300084F83500F2E720680068C007F0D1226822
:10124000116820480140D4E901031843D4E903366A
:101250003343184363691843A3691843E369184388
:10126000236A18430843616A042903D1D4E90B13A4
:1012700019430843106020684069666A20F007013E
:1012800030460E43012704280CD1A06A0643E06AC9
:1012900040B12046FFF798F920B14020606584F8FE
:1012A0003570BAE7206846612046FFF779F994F86F
:1012B0005C203F2191408160656584F83570002095
:1012C000ACE700003F8010F070B5044600F01AF95A
:1012D0000546601C02D004480078044400F012F96E
:1012E000401BA042FAD370BD0400002070470000EC
:1012F000044910B50A68024202D00860FFF7F6FF01
:1013000010BD0000143C01402DE9F84FDFF8BCA1EE
:101310000022012503264FF00F090AF1040BAAF160
:10132000040E00BF0B6805FA02F42340A34270D1FB
:101330000F7907F00307012F01D0022F16D187681C
:101340004FEA420806FA08FC27EA0C07D1F80CC05D
:101350000CFA08FC4CEA070CC0F808C04768A74321
:101360000C79C4F3001494403C4344600C79E4438A
:10137000A4070AD0C4684FEA420C06FA0CF7BC4333
:101380008F6807FA0CF72743C7600C7904F0030451
:10139000022C12D1D40800EB840CDCF82040570753
:1013A000FF0E09FA07F824EA0804D1F8108008FAB9
:1013B00007F848EA0408CCF8208004684FEA420C99
:1013C00006FA0CF7BC430F7907F0030707FA0CF78E
:1013D000274307604C6814F4403F70D03C4C2768AA
:1013E00047F480472760246822F0030704F4804410
:1013F0000094384C07EB040CDCF8084897074FEAD8
:10140000177809FA08F7BC43334FB84202D10027D6
:1014100024E054E0314FB84201D101271EE0304FA3
:10142000B84201D1022719E02E4FB84201D103275B
:1014300014E02D4FB84201D104270FE02B4FB842E2
:1014400001D105270AE02A4FB84201D1062705E05D
:10145000284FB84201D1072700E0082707FA08F70C
:101460002743CCF80878DAF800405746D1F804C092
:101470009C435FEACC2C00D51C433C60DBF8004069
:101480005F46D1F804C09C435FEA8C2C00D51C4316
:101490003C60DEF800407746D1F804C09C435FEA28
:1014A0008C3C00D51C433C60084F083F3C68D1F899
:1014B00004C09C435FEACC3C00D51C433C60521CFA
:1014C000102AFFF42FAFBDE8F88F0000083C014060
:1014D0004438024000300140000002400004024055
:1014E00000080240000C02400010024000140240BC
:1014F00000180240001C02400AB1816170470904D3
:10150000FBE70000014880687047000004000020ED
:10151000024881680278114481607047040000200D
:101520000B4810B5016841F400710160016841F495
:1015300080610160016841F480710160032000F066
:101540006FF80F2000F006F800F024F8002010BD1E
:10155000003C024070B50D4D04464FF47A71287876
:10156000B1FBF0F00A490968B1FBF0F000F0DFFCD4
:1015700048B9102C07D200222146501E00F030F846
:1015800000206C6070BD012070BD000004000020D0
:10159000100000200A4808B5016841F4804101604C
:1015A000006800F4804000900548001F016841F089
:1015B00080510160006800F08050009008BD00007C
:1015C00044380240002809DB00F01F02012191404D
:1015D0004009800000F1E020C0F8001170470000D1
:1015E000F0B40E4B1B680C46C3F30223C3F107058E
:1015F000042D00D90425191D072901D2002300E07C
:10160000DB1E012606FA05F1491E214099409E4045
:10161000761E16403143F0BC01F0EBBE0CED00E04D
:10162000064900F0070208684FF6FF03184040EA39
:101630000220034A10430860704700000CED00E0F0
:101640000000FA052DE9F0470E46050065D0DFF8E9
:101650001481D8F80000F7B200F00700B04207D2BA
:1016600088F80070D8F8000000F00700B04254D1AC
:1016700028683D4C810712D5400703D5206840F407
:10168000E05020602878000703D5206840F46040CF
:1016900020602068A96820F0F000084320602878C6
:1016A000C0072DD0304968680839012812D00228B7
:1016B00013D0032811D00968890700292DDA216881
:1016C00021F0030101432160FFF71CFF814641F235
:1016D000883A0EE009688903EFE709688901ECE7B9
:1016E000FFF710FFA0EB0901514502D90320BDE827
:1016F000F0872068696800F00C00B0EB810FEFD133
:10170000D8F80010404601F00701B14207D9077030
:10171000006800F00700B04201D00120E7E7287818
:10172000400705D52068E96820F4E05008432060B0
:101730002878000706D52068296920F4604040EA2F
:10174000C100206000F038F82168084AC1F3031195
:10175000515CC8400649086006480068FFF7FAFE79
:101760000020C4E7003C0240083802407A3D0008EF
:10177000100000200800002004480549006809689E
:10178000044AC1F38221515CC84070471000002018
:10179000083802408A3D0008044805490068096885
:1017A000044AC1F34231515CC84070471000002028
:1017B000083802408A3D0008154810B5006810F04E
:1017C0000C02144813D01449042A0FD0082A0ED151
:1017D0000F4C241F2268236802F03F025B0207D5EA
:1017E0002068C0F38810A0FB010106E0084610BD88
:1017F0002168C1F38811A1FB00010023FEF734FD2D
:101800002168C1F30141491C4900B0FBF1F010BD52
:10181000083802400024F400001BB7002DE9F84FFF
:1018200004006ED02078DFF84C93C007A9F10405BE
:101830004AD009F104000168C1F38101012908D0EF
:101840000068C0F3810002280AD1D9F800004002E4
:1018500006D52868800337D560680028E1D033E0DA
:101860006068B0F5803F10D0B0F5A02F286810D088
:1018700020F480302860286820F480202860606888
:10188000A8B1FFF73FFE06460DE0286840F480301F
:10189000F4E740F480202860F7E700BFFFF732FE4E
:1018A000801B642873D828688003F7D50CE0FFF705
:1018B00029FE064605E000BFFFF724FE801B6428D2
:1018C000F0D828688003F7D42078DFF8AC8280074E
:1018D0004FF0000A3ED5A748001D016811F00C0F1B
:1018E00008D00068C0F3810002280BD1D9F80000AD
:1018F000400207D42868800716D5E068012800D187
:1019000012E033E1E068B8B10120C8F80000FFF749
:10191000F9FD064605E000BFFFF7F4FD801B022835
:10192000C0D828688007F7D52868216920F0F8001A
:1019300040EAC10028600DE0C8F800A0FFF7E2FD12
:10194000064604E0FFF7DEFD801B02281FD828684A
:101950008007F7D42078000722D5864F8748616931
:10196000703771B101210160FFF7CCFD064604E03C
:10197000FFF7C8FD801B022809D838688007F7D513
:101980000EE0C0F800A0FFF7BDFD064605E082E0CE
:10199000FFF7B8FD801B02287DD838688007F7D490
:1019A0002078400768D5DFF8CCB100270BF13C0B5D
:1019B000DBF80000C0000BD4DBF8001041F08051D0
:1019C000CBF80010DBF80000012700F080500090F9
:1019D0006B4E3068C00510D4306840F480703060C1
:1019E000FFF790FD009005E0FFF78CFD0099401A8D
:1019F000022850D83068C005F6D55E4EA0686C3617
:101A000001280FD00528306810D020F00100306088
:101A1000306820F004003060A068B8B1FFF772FDB4
:101A200000900FE0306840F00100F4E740F004005F
:101A30003060F7E7FFF766FD0099411A41F2883000
:101A4000814266D830688007F4D50EE0FFF75AFD72
:101A5000009007E0FFF756FD0099411A41F28830E7
:101A6000814256D830688007F4D42FB1DBF80010DB
:101A700021F08051CBF80010A069C8B33D49091D81
:101A80000968C1F3810102294AD00228504607D0D3
:101A9000C8F8600000E03CE0FFF734FD04463BE09E
:101AA0004746C8F86000FFF72DFD064605E000BF79
:101AB000FFF728FD801B02282BD828688001F7D467
:101AC000D4E907010843A16A2E4A490802EB014103
:101AD000626A41EA8211084394F82C1040EA0161DD
:101AE000C9F8001001203866FFF70CFD044606E037
:101AF0003EE000BFFFF706FD001B022809D828685A
:101B00008001F7D534E000BFFFF7FCFC001B022882
:101B100002D90320BDE8F88F28688001F4D427E0BB
:101B20000128F7D0D9F80000E26900F48001914261
:101B30001CD1226A00F03F01914217D147F6C071D3
:101B4000626A0140B1EB821F10D1A26A4FF0FF33ED
:101B500000F4403103EB5202B1EB024F06D194F88E
:101B60002C1000F07060B0EB016F01D00120D1E7C4
:101B70000020CFE70438024000004742800E474271
:101B8000007000400000FFFF70B5040009D0606ADB
:101B9000002540B125616561A56294F8510040B10E
:101BA0000CE0012070BD6068B0F5827FF4D0E56183
:101BB000F2E784F85050204600F044F8022084F800
:101BC00051002068016821F040010160A08821894E
:101BD00000F4827001F404410843A18901F400611A
:101BE0000843217C01F002010843217D01F001013D
:101BF0000843218B01F400710843217F01F0380173
:101C0000084394F8201001F080010843218D01F46D
:101C10000051084321680860A069042101EA1040CE
:101C200094F8241001F010010843216848602068EE
:101C3000C16921F40061C1616565012084F851002A
:101C4000002070BD2DE9F04186B00646142168469B
:101C5000FEF781FB34493068884262D13348002462
:101C6000016841F480510160006800F480500590E3
:101C70002E481438016841F002010160016801F04A
:101C800002010591016841F001010160006802252F
:101C900000F0010005901820CDE9000502AA0327F5
:101CA0004FF0050882E8900169462148FFF72CFBB8
:101CB0008020CDE9000502AA694682E890011D480E
:101CC000FFF722FB1D4D1C487F062860C5E9017403
:101CD0004FF48068C5E903486C61AC61EC612C622B
:101CE00028466C62FFF786FA08B1FEF79BFCF564A4
:101CF000AE63124D104860354830E5E802074020D9
:101D0000A5E811010D4845F814496030AC61EC615B
:101D10002C626C62FFF76EFA08B1FEF783FCB564C3
:101D2000AE6306B0BDE8F0810030014044380240A7
:101D30000004024000000240106402400401002040
:101D40002DE9FF4F81B0044690F8500000260E9F09
:101D50001D4693464FF0010901280FD04FF0010AAC
:101D600084F850A0FFF7CEFB804694F851006168DC
:101D700001280DD0B1F5827F08D103E0022005B023
:101D8000BDE8F08FA16809B9042801D00226C9E096
:101D90000298002865D0BBF1000FFBD0002DF9D0D0
:101DA00094F85100042802D0052084F85100002046
:101DB0006065C4F838B0E587A58702992163E58698
:101DC000A5862064606420680168490603D4016820
:101DD00041F040010160E068B0F5006F606803D039
:101DE000F0B3012D47D081E008B1012D3CD1206B2B
:101DF00021680088C860206B801C2063E08E401E34
:101E0000E08631E02068816889070FD5E18E69B1ED
:101E1000B9F1010F0AD1216B0988C160206B801CC8
:101E20002063E08E401EE0864FF000092068816844
:101E3000C9070CD0E18F51B1C068A16B0880A06BBD
:101E4000801CA063E08F401EE0874FF00109FFF780
:101E500059FBA0EB0800B84206D3781C04D001E07F
:101E600009E05BE003265BE0E08E0028CAD1E08F4A
:101E70000028C7D140E0206B216800780873206BF0
:101E8000401C2063E08E401EE0862FE020688168C1
:101E900089070FD5E18E69B1B9F1010F0AD1216B24
:101EA00009780173206B401C2063E08E401EE086A1
:101EB0004FF0000920688168C9070CD0E18F51B14B
:101EC000C068A16B0870A06B401CA063E08F401E2F
:101ED000E0874FF00109FFF715FBA0EB0800B842BF
:101EE00002D3781C02D0BAE7002FB8D0E08E0028C9
:101EF000CCD1E08F0028C9D142463946204600F0B7
:101F0000DDFE18B10126202060650BE0A06818B93D
:101F10002068C16880680090606D08B1012601E00A
:101F200084F851A0002084F85000304627E710B50F
:101F3000401EB0F1807F01D3012010BD4FF0E0249E
:101F400060610F21601701F054FA0020A0610720A2
:101F50002061002010BD10B5040003D094F83D00AE
:101F600010B107E0012010BD002084F83C0020469D
:101F700000F01EF8022084F83D00211D206800F0CA
:101F800085FF012084F8460084F83E0084F83F0075
:101F900084F8400084F8410084F8420084F843004B
:101FA00084F8440084F8450084F83D00002010BD0A
:101FB00008B500680649884208D10648016841F41E
:101FC00000310160006800F40030009008BD00009E
:101FD000004401404438024090F83D10012901D0EE
:101FE00001207047022180F83D10006811498842A5
:101FF00014D0B0F1804F11D00F4988420ED00F4954
:1020000088420BD00E49884208D00E49884205D03C
:102010000D49884202D00D49884204D1816801F0FF
:102020000701062903D0016841F001010160002089
:10203000704700000000014000040040000800401C
:10204000000C004000040140004001400018004026
:1020500010B586B0044614216846FEF77CF9114994
:10206000206888421CD11048016841F020010160BD
:102070000068012100F0200005904020009002201F
:10208000CDE9010103900320049069460748FFF75A
:102090003BF90748FFF7A0FF0021054800F09EF834
:1020A00006B010BD00440140303802400014024028
:1020B000C401002070B5044690F83C0000260D468F
:1020C00001280FD0012084F83C006AB1042A1DD0F9
:1020D000082A2FD00C2A3FD00126002084F83C008B
:1020E000304670BD022070BD206800F049FF2068B6
:1020F000816941F0080181612068816921F0040152
:102100008161206881692A69114311E0206800F02B
:1021100067FF2068816941F40061816120688169FD
:1021200021F480618161206881692A6941EA022184
:102130008161D2E7206800F089FF2068C16941F021
:102140000801C1612068C16921F00401C1612068F2
:10215000C1692A69114311E0206800F0ABFF2068D3
:10216000C16941F40061C1612068C16921F48061E5
:10217000C1612068C1692A6941EA0221C161ACE7F5
:1021800010B5040003D094F83D0010B107E0012021
:1021900010BD002084F83C00204600F01EF802200C
:1021A00084F83D00211D206800F070FE012084F8B5
:1021B000460084F83E0084F83F0084F8400084F82C
:1021C000410084F8420084F8430084F8440084F815
:1021D000450084F83D00002010BD704710B504464E
:1021E000022249B104290ED0082913D094F84100E5
:1021F000012816D0012010BD94F83E000128F9D125
:1022000084F83E200FE094F83F000128F2D184F8D2
:102210003F2008E094F840000128EBD184F84020EA
:1022200001E084F841200122206800F09BFE16495D
:102230002068164A884201D0904203D1436C43F48F
:10224000004343642068884213D0B0F1804F10D01F
:102250000F4988420DD00F4988420AD00E49884262
:1022600007D0904205D00D49884202D00C498842DF
:1022700004D1816801F00701062903D0016841F00B
:1022800001010160002010BD000001400004014078
:102290000004004000080040000C004000400140E5
:1022A0000018004070477047F8B501680446086898
:1022B000CA684B6910F00F0F4FF0000559D003F0BA
:1022C000010602F49077374365D0C10705D0D105E8
:1022D00003D5616C41F001016164410705D5D9075F
:1022E00003D0616C41F002016164810705D5D90713
:1022F00003D0616C41F004016164010707D502F06D
:102300002001314303D0616C41F008016164616CCC
:1023100000293AD0800604D5900602D5204600F068
:1023200020FF20684069616CC0F38010090700D469
:1023300060B3204600F0EEFE20684069400621D5DB
:102340002068143050E8001F21F0400140E80012DE
:10235000002AF5D1E06BA8B16E490165E06BFEF78C
:1023600067FE002811D0E06B016D01B0BDE8F040C0
:10237000084783060FD593060DD52046BDE8F840E3
:1023800000F0EFBE2046FFF78EFFF8BD2046FFF7B6
:102390008AFF6564F8BD266B2023012E7DD1C60619
:1023A0007BD5D60679D508684868009048694FF013
:1023B0000206400641D5E16B086840680004000C45
:1023C000E8D0A28D8242E5D9E085C869B0F5807F6A
:1023D0002DD020680C3050E8001F21F4807140E8B7
:1023E0000012002AF5D12068143050E8001F21F0B7
:1023F000010140E80012002AF5D12068143050E8AD
:10240000001F21F0400140E80012002AF5D184F8B5
:102410004230256320680C3050E8001F21F0100185
:1024200040E80012002AF5D1E06BFEF7B8FD6663C4
:10243000A08DE18D401A81B22AE0A08DE18D401A75
:1024400081B2E08D0028A5D00029A3D022680C32EB
:1024500052E8000F20F4907042E80007002FF5D1F9
:102460002068143050E8002F22F0010240E80027D5
:10247000002FF5D184F84230256320680C3050E8F5
:10248000002F22F0100240E80023002BF5D16663F4
:102490002046FFF707FFF8BDFFE705062BD5150619
:1024A00029D594F841002128F5D1A068B0F5805FC6
:1024B00001D12069B0B1206A411C216221680078F5
:1024C0004860E08C401E0004000CE084E3D12068EA
:1024D000C16821F08001C1602068C16841F04001FD
:1024E000C160D8E7206A0088C0F308004860206A0D
:1024F000801C2062E5E74006CDD55006CBD5CA68E2
:10250000204622F04002CA6084F8413000F017F9FA
:10251000C1E700000531000870B5040004D094F84C
:102520004100002510B106E0012070BD84F8405044
:10253000204600F023F8242084F841002068C16878
:1025400021F40051C160204600F06CFE2068016952
:1025500021F4904101612068416921F02A01416123
:102560002068C16841F40051C1606564202084F88E
:10257000410084F842006563002070BD2DE9F04FF2
:1025800087B0064614216846FDF7E5FE6148DFF88E
:1025900080C1336800245F491438022503270722CD
:1025A0004FF000694FF4806A4FF4807B634547D158
:1025B0000B6843F010030B60096801F010010591EE
:1025C000016841F002010160016801F0020105911A
:1025D000016841F001010160006802AB00F00100F8
:1025E00005908020CDE90005904683E8900169467A
:1025F0004948FEF789FE2802CDE9000502AB69468D
:1026000083E890014548FEF77FFE464D4448286028
:10261000C5E90194C5E9034A6C61C5E9064B2C6222
:1026200028466C62FEF7E6FD08B1FDF7FBFFF56397
:10263000002205212520AE63FEF7D2FF25203BE0D6
:10264000DFF8E4C063453CD13249091F0B6843F40D
:1026500080230B60096801F480210591016841F035
:10266000040101600068029400F0040005904FF43A
:102670004060CDE90005CDE9037269462B48FEF7BD
:1026800043FE284D2A4860352860C5E90194C5E914
:10269000034A6C61C5E9064B2C6228466C62FEF762
:1026A000A9FD08B1FDF7BEFFF56300220521272033
:1026B000AE63FEF795FF2720FEF784FF07B0BDE865
:1026C000F08F1C4A9342F9D10A6842F020020A6056
:1026D000096801F020010591016841F040010160A5
:1026E0000068029400F0400005904FF48440CDE96A
:1026F00000050820CDE9037069460F48FEF704FE87
:10270000002211464720FEF76BFF4720D4E7000068
:102710000010014044380240000402400000024022
:1027200040640240E40200200048004000080240EB
:1027300028600240001401400018024070477047B2
:10274000FEE700000F4810B50D490160032141600C
:1027500000214FF410228160C0E903124FF40012EF
:102760004261017641768176C17601774177FEF745
:1027700040FA002803D0BDE81040FDF753BF10BD5C
:10278000006400405C0000200F4810B50D49016056
:102790000321416000214FF410228160C0E903123F
:1027A0004FF400124261017641768176C17601775D
:1027B0004177FEF71EFA002803D0BDE81040FDF770
:1027C00031BF10BD0068004084000020194808B5E2
:1027D000016841F480010160016801F48001009109
:1027E000016841F4001101600068002200F400104B
:1027F000009005210C20FEF7F3FE0C20FEF7E2FE10
:10280000002205213820FEF7EBFE3820FEF7DAFE25
:10281000002205213A20FEF7E3FE3A20FEF7D2FE21
:10282000002205213B20FEF7DBFEBDE808403B20EF
:10283000FEF7C8BE303802402DE9F04186B01421C1
:102840006846FDF788FD45480025016841F0020112
:102850000160016801F002010591016841F0400149
:102860000160016801F040010591016841F001013A
:102870000160016801F001010591016841F0080162
:102880000160016801F008010591016841F004014F
:102890000160016801F004010591016841F08001C7
:1028A0000160016801F080010591016841F020019B
:1028B000016000682A4E00F020004FF4E0540590BB
:1028C000002221463046FEF717FE264F0122102136
:1028D0003846FEF711FEDFF890800122114640468F
:1028E000FEF70AFE009401240320CDE90240694668
:1028F00001943046FEF708FDA00300900220CDE9C8
:102900000105CDE9035069461848FEF7FDFC10208B
:10291000CDE900040294694638460394FEF7F4FCBE
:10292000302000904FF48810CDE90104694610482A
:10293000FEF7EAFC00940194029469464046039431
:10294000FEF7E2FC002205210A20FEF749FE0A20DC
:10295000FEF738FE06B0BDE8F081000030380240D6
:10296000001C02400000024000040240000C024033
:1029700000080240104810B50E4901604FF4827102
:102980004160002102228160C0E9031201224261FC
:10299000520282611822C0E90721416281620A2144
:1029A000C162FFF7F1F8002803D0BDE81040FDF741
:1029B00039BE10BD00300140AC00002010B588B019
:1029C0001C216846FDF7C7FC144813490024C0E9E0
:1029D000001441F28731C0E9024104618461FFF7CC
:1029E000BAFA08B1FDF71EFE0C48FFF7C9FB08B1A3
:1029F000FDF718FE6020CDE900040294002269462C
:102A000006480494FFF756FB08B1FDF70BFE034898
:102A1000FFF71EFB08B010BD00440140C4010020B8
:102A20000C4810B50A4901604FF4E13141600021C2
:102A300081600C22C160C0E904128161C161FFF7AD
:102A40006BFD002803D0BDE81040FDF7EBBD10BDC5
:102A5000001001400C0200200D4810B50B49016028
:102A60000C49416000214FF40052C0E902120C22CF
:102A7000C0E904128161C161FFF74EFD002803D057
:102A8000BDE81040FDF7CEBD10BD0000004800407D
:102A900054020020A08601000C4810B50A490160CC
:102AA0004FF4E1314160002181600C22C160C0E936
:102AB00004128161C161FFF72FFD002803D0BDE83A
:102AC0001040FDF7AFBD10BD001401409C02002076
:102AD000FEE7FEE7A0B1D0ED101AC0ED111A90ED9F
:102AE0000F1A80ED101AC0ED060A80ED070A30EECD
:102AF000C00A80ED0F0A017829B101293BD078E0A6
:102B00009FED3D0A7047D0ED010A60EE801AC0EDDE
:102B1000091AD0ED0A0A90ED022A42EE000A30EEC0
:102B2000410AC0ED0A0A90ED0D2A80ED0E2A90EDC3
:102B30000C2A80ED0D2A80ED0C0A90ED031A21EE8F
:102B4000001A80ED0B1A90ED050AF4EEC00AF1EEC2
:102B500010FA09DCB1EE400AF4EEC00AF1EE10FA08
:102B600002D390ED0A0A01E080ED0A0A31EE800AF4
:102B700030EE010A2BE070EE410A90ED012A20EEC2
:102B8000822A80ED092AD0ED020A60EE800AC0EDAB
:102B90000A0AD0ED0D2A72EE200AC0ED0E2AD0ED01
:102BA0000C2AC0ED0D2AF0EE002A01EE620A30EE8A
:102BB000210A80ED0C0A90ED031A21EE000A80ED47
:102BC0000B0A30EE800AD0ED080A30EE200A80EDC4
:102BD000080AD0ED040AB4EEE00AF1EE10FA06DCC1
:102BE000F1EE600AB4EEE00AF1EE10FA01D2C0EDA7
:102BF000080A90ED080A704700000000002828D05D
:102C0000002A26D0017092ED001A80ED011A92ED93
:102C1000011A80ED021A92ED021A80ED031A80ED7E
:102C2000040A9FED0C0AC0ED050A80ED0E0A80ED46
:102C30000D0A80ED0C0A80ED080A80ED0B0A80ED8C
:102C40000A0A80ED090A80ED110A80ED100A80ED74
:102C50000F0A7047000000007047000030B5144BA9
:102C60001C68656945F0400565611B68DC6844F0D7
:102C70001004DC600F4B1C68256825F001052560F9
:102C80001C682568ED07F7D11D680B4CAC601C680B
:102C9000E06018680161186842601868016841F4D2
:102CA000802101601868016841F00101016030BDB8
:102CB000540200204403002004480040F8B51546A3
:102CC0000E460B46009204460122022100F02CF829
:102CD000A0B9134813490068B0FBF1F04FF47A71C2
:102CE000484300906068B0F5827F0DD133460022E2
:102CF00080212046009500F017F870B1606D40F01B
:102D0000200060650320F8BD009830B1401E00909F
:102D100020688068C0430006F6D50020F8BD00009A
:102D20001000002000366E012DE9F8431E46914642
:102D300088460446089DFEF7E5FB401B351AFEF762
:102D4000E1FB074625480068C0F3CB30684338E014
:102D5000701C37D0FEF7D6FBC01BA84203D215B1BA
:102D6000009860B32CE02068416821F0E0014160E8
:102D70006068B0F5827F0BD1A068B0F5004F02D03B
:102D8000B0F5806F04D12068016821F04001016036
:102D9000A06AB0F5005F09D12068016821F40051F4
:102DA00001602068016841F400510160012084F84D
:102DB0005100002084F850000320BDE8F88300256E
:102DC000401E00902068816838EA010004D000218C
:102DD0004945BDD10020F0E70121F9E710000020AE
:102DE0007047FEF795BB000030B593B030216846C0
:102DF000FDF7B1FA14210CA8FDF7ADFA1D48002526
:102E0000016841F080510160006800F0805011902D
:102E10001948016841F4804101600068022400F40F
:102E20008040119001200090000401908001CDE9C4
:102E3000064006200890A820CDE9090404200B9044
:102E40006846FEF7EBFC08B172B6FEE70CA90F204E
:102E500081E831004FF4A0500F904FF48050109053
:102E600005210CA8FEF7EEFB002801D072B6FEE7A4
:102E700013B030BD40380240007000400248016885
:102E800041F470010160704788ED00E0F0B5026820
:102E9000294C2A4D2A4E2B4F2B4B4FF0804CA042F1
:102EA00009D0604507D0A84205D0B04203D0B8424F
:102EB00001D0984204D122F0700E4A6842EA0E0214
:102EC000A0421BD0604519D0A84217D0B04215D0FF
:102ED000B84213D0984211D01C4DA8420ED01C4DC0
:102EE000A8420BD01B4DA84208D01B4DA84205D0CC
:102EF0001A4DA84202D01A4DA84203D122F44075BF
:102F0000CA682A434D6922F080022A4302608A6817
:102F1000C2620A688262A04201D0984201D1096966
:102F20000163012141610169C90703D0016921F0F1
:102F300001010161F0BD00000000014000040040FB
:102F400000080040000C0040000401400040014027
:102F5000004401400048014000180040001C0040AF
:102F60000020004010B501F01F030121046A9940C0
:102F70008C430462016A9A401143016210BD000053
:102F8000F0B5036A026A22F00102026242688469B3
:102F9000124E24F073050C682C4323F002058B6855
:102FA0002B430D4DA84201D0B04205D123F00807B4
:102FB000CB683B4323F00403A84201D0B04205D1C3
:102FC0004D6922F4407215438A692A434260846144
:102FD000496841630362F0BD000001400004014004
:102FE000F0B5026A036A23F0100303624368846940
:102FF0000D6824F4E64444EA05248D6822F020029A
:1030000042EA05120F4D104EA84201D0B04206D13F
:10301000CF6822F0800242EA071222F04002A84262
:1030200001D0B04207D14D6923F4406343EA8503E0
:103030008D6943EA85034360846149688163026264
:10304000F0BD00000000014000040140F0B5026A3C
:10305000036A23F4807303624368C46922F4007234
:1030600024F073050C68124E2C438D6842EA052249
:103070000E4DA84201D0B04206D1CF6822F40062C2
:1030800042EA072222F48062A84201D0B04207D16E
:103090004D6923F4405343EA05138D6943EA051350
:1030A0004360C4614968C1630262F0BD0000014031
:1030B0000004014030B5046A026A22F480520262C0
:1030C0004268C3690D6823F4E64343EA05238D682B
:1030D00024F4005444EA0534084DA84202D0084DB7
:1030E000A84204D14D6922F4804242EA851242602E
:1030F000C36149680164046230BD00000000014002
:103100000004014010B5806B0021C185C184FFF728
:10311000CAF810BD01680C3151E8002F22F49072FA
:1031200041E80023002BF5D10168143151E8002F4C
:1031300022F0010241E80023002BF5D1016B0129A7
:1031400009D101680C3151E8002F22F0100241E84A
:103150000023002BF5D1202180F8421000210163CB
:10316000704708B590F84210222901D0022008BD0E
:1031700082684FF480539A4201D1016921B1816A7A
:103180009A421BD04AB10AE00268816A5268C2F3CF
:1031900008020A80816A891C08E0026972B102682B
:1031A000526802F07F020A70816A491C8162C18DF7
:1031B000491E0904090CC18503D01BE0026852684E
:1031C000F1E70168CA6822F02002CA600168CA6893
:1031D00022F48072CA6001684A6922F001024A61E1
:1031E000202180F8421000214163026B012A03D0A4
:1031F000FFF7A4FA002008BD016301680C3151E813
:10320000002F22F0100241E80023002BF5D10168C5
:103210000A68D20602D50A6849680091818DFFF7D5
:1032200041F8E7E770B5044600680169E26821F4F7
:103230004051114301612169A068E2690843616955
:10324000114308432168CA6849F20C639A43024358
:10325000CA6020684169A26921F44071114341614B
:1032600031492068884202D03049884202D1FEF7B5
:1032700093FA01E0FEF780FAE26900231921642540
:103280003226B2F5004F626828D0A0FB0101930FEF
:103290009200FCF7E9FF0146B0FBF5F06FF0180271
:1032A000504301EB800006EB0010B0FBF5F000F09E
:1032B000F002B1FBF5F002EB0012B1FBF5F06FF09C
:1032C0001803584301EB800006EB0010B0FBF5F04B
:1032D00000F00F0021681044886070BDA0FB010160
:1032E00092185B41FCF7C0FF0146B0FBF5F002010C
:1032F000B1FBF5F06FF01803584301EB800006EBCB
:10330000C000B0FBF5F000F0F80002EB4002B1FBAA
:10331000F5F0584301EB800006EBC000B0FBF5F080
:1033200000F00700D6E70000001001400014014043
:103330000148FEF7B9BF00000C020020264818B46F
:1033400000680168890604D501684068009018BCCF
:10335000704722490968C906F9D501684068204AC2
:103360000090106801684FF032030C031D49046897
:1033700024F00104046016D410684468C4F13204D7
:10338000A4B24C8043601068016841F400210160E0
:103390001068016841F001010160192CD7D1124970
:1033A00001F1180015E014686068C0F1320080B2C5
:1033B000488063600D498B6A23F400238B62116897
:1033C0000A6842F001020A601928C0D1064901F1D9
:1033D000310018BC00F07ABA5402002000480040C6
:1033E0004403002026000020E40400200060024086
:1033F000FEE70907090E002804DB00F1E02080F851
:103400000014704700F00F0000F1E02080F8141D58
:103410007047D0ED000AF4EEC00AF1EE10FA06DCB7
:10342000B1EE400AF4EEC00AF1EE10FA01D280EDDE
:10343000000A70472DE9F0410024FCF7F9FF8020D5
:10344000FDF74CF85520FDF749F85520FDF746F8F3
:10345000FCF7E6FF9620FDF712F8FCF7E9FF802065
:10346000FDF73CF85520FDF739F85520FDF736F803
:10347000FCF7D6FF9620FDF702F8FCF7D9FFB6213E
:103480007E20FDF73BF8FCF7CBFF5020FCF7EBFF6D
:10349000FCF7CEFF8020FDF721F85520FDF71EF840
:1034A0005520FDF71BF8FCF7BBFF9620FCF7E7FF64
:1034B000FCF7BEFF8020FDF711F85520FDF70EF850
:1034C0005520FDF70BF80546FCF7AAFF9620FCF700
:1034D000D6FF1E2D02D0FF20BDE8F081184D00BFA1
:1034E000FCF7A6FF04EB44067719A85D7978FDF791
:1034F00005F8FCF795FF9620FCF7C1FFFCF798FF55
:10350000A85D40F08000FCF7E9FF5520FCF7E6FFDE
:103510005520FCF7E3FF0646FCF782FF9620FCF7F8
:10352000AEFF7878B04204D004EB440028448078A1
:10353000D2E7641CE4B2062CD2D30020CCE7000012
:1035400038000020F8B500248DF80040FCF782FF19
:1035500069460020FCF7B6FFFCF774FF9620FCF7E5
:103560008EFFFCF777FF69460020FCF7ABFFFCF706
:1035700069FF9620FCF783FFFCF76CFFB62114204F
:10358000FCF7BCFFFCF75EFF5020FCF76CFFFCF77C
:1035900061FF69460020FCF795FFFCF753FF96207A
:1035A000FCF76DFFFCF756FF69460020FCF78AFF29
:1035B000FCF748FF9620FCF762FF9DF800000F28FB
:1035C00001D0FF20F8BD154DFCF744FF04EB440685
:1035D0007719A85D7978FCF791FFFCF733FF962007
:1035E000FCF74DFFFCF736FFA85D6946FCF76AFF64
:1035F000FCF728FF9620FCF742FF78789DF8001032
:10360000884204D004EB440028448078F8BD641C50
:10361000E4B2062CD8D30020F8BD00004A000020F8
:1036200000B58BB000200121CDE906010891009082
:103630000190029003900590049069460C48FDF7B4
:10364000D9F80B48FDF778FC02210948FDF762F82C
:103650000E200990059069460648FDF7CBF805480D
:10366000FDF76AFC02210348FDF754F80BB000BDDA
:103670005C0000208400002070B52DED028BFFF768
:10368000CFFF00F01BF9FDF71BF8104DDFED108A9E
:103690009FED108A002405F5907600BF04EBC4006E
:1036A00005EBC000F0EE680AB0EE480A0A4A0021B5
:1036B000FFF7A4FAE0B200F011F846F82400641C09
:1036C000042CEBDBBDEC028B70BD0000300500204C
:1036D0000000FA4400401C46A03D000800F0030032
:1036E000024900EB800001EB80007047A40300203A
:1036F00000487047F403002010B504462DED028BFE
:10370000B0EE418A80ED040AC0ED030A30EEC00A33
:103710009FED1C1ADFED1C0A00F058F884ED050A35
:10372000D4ED000A04F1240060EE800AC4ED080A1A
:10373000D4ED090A94ED011A41EE000AC4ED090A1C
:1037400094ED020A20EE080A84ED0A0A94ED070AB5
:10375000FFF75FFE94ED080AD4ED090A04F12C008E
:1037600030EE200AD4ED0A0A30EE200A84ED0B0A6E
:1037700094ED060AFFF74DFE94ED0B0ABDEC028BAB
:1037800010BD00004A034940DB0F49C080EC031A1A
:103790009FED051A80ED051A80ED041AC0ED070AA9
:1037A00080ED060A70470000000000009FED040A4B
:1037B000044A0021F0EE400A0348FFF71FBA000058
:1037C00000C08F45943D00088C040020B4EEE01A40
:1037D000F1EE10FA0FD371EE601AB4EEC10AF1EEF9
:1037E00010FA03DC08E000BF30EE610AB4EEC10A53
:1037F000F1EE10FAF8DC7047B4EEE00AF1EE10FAE0
:1038000002D3704730EE210AB4EEE00AF1EE10FA6E
:10381000F8D37047FDF784FEFFF7E6FAFFF70CF8E0
:10382000FEF7D4FFFEF78EFFFEF7AEFFFFF7A2F81C
:10383000FFF7C4F8FFF7F4F8FFF70EF9FFF72CF9DC
:10384000FCF734FEFFF7B2FF00F038F8FFF714FF83
:10385000FCF736FF4FF4E1642046FCF7E5FE052057
:10386000FDF732FDF8E710B5401A029CE41A6043F8
:10387000511A90FBF1F0184410BD0000401A4FF4AB
:103880008051884206DB00BFA0F5F850FF3888421F
:10389000FADA06E00749884203DACA0C1044884283
:1038A000FCDB00EE100ADFED040AB8EEC00A20EEE1
:1038B000200A704700F0FFFFDB0F493A0249192246
:1038C000A1F11900FFF7CAB915050020F0B50C46A3
:1038D0002DED028B81B000287ED0002C7CD0417869
:1038E000827841EA0221C1F30A0262808178C378BA
:1038F000C90841EA4311C1F30A05A580C1780379DB
:10390000890941EA8301437941EA8321C1F30A012C
:103910002180437986795B0843EAC613C3F30A031F
:10392000E3808679C779360946EA0716C6F30A06A0
:103930002681C679077AF60946EA4706477A46EAB3
:103940004726C6F30A066681467A877AB60846EAAB
:103950008716C6F30A06A681877A90F80BC07F09FE
:1039600047EACC07E781077B90F80DC047EA0C27B0
:10397000C7F30A072782477B90F80EC0FF0847EA83
:103980004C17C7F30A076782877B90F80FC0BF09FF
:1039900047EA8C0790F810C047EA8C27C7F30A075C
:1039A000A782077C407C7F0847EAC010C0F30A006A
:1039B000E082A1F57B71A5F580652180A2F57B727F
:1039C000C5F190006280A080A3F57F73E3804FF47F
:1039D000997540F29E6700E076E03B461A4629461C
:1039E00030460095FFF73FFFA08100953B46B4F9B4
:1039F0000E001A462946FFF736FF4FF42F76E08176
:103A0000334A00967742B4F902003B465142FFF731
:103A10002AFF60802E490097B4F9000033464FF426
:103A200047729039FFF71FFF208000252849009535
:103A3000B4F90400192340F285321831FFF713FF5F
:103A4000A08023490096B4F906003B464FF4437228
:103A5000A439FFF708FF00B200F071F89FED1D8B4D
:103A600053EC182B00F082F800F03AF807B2E78028
:103A7000B4F9020000F063F853EC182B00F076F86C
:103A800000F02EF806B26680B4F9000000F057F896
:103A900053EC182B00F06AF800F022F800B22080F6
:103AA0000D30172800D225801D36312E00D26580BA
:103AB000B4F90400032800D8A58015372B2F00D2B5
:103AC000E58006490120087001B0BDEC028BF0BD15
:103AD00070FDFFFF000000000000E03F2600002016
:103AE0004FEA41034FEA5353A3F58063D3F11E031A
:103AF000C8BFD3F1210C0CDD4FF0004242EAC122D5
:103B000042EA505232FA03FC8CEAE17CACEBE17001
:103B10007047102BC4BF0020704703F5787CBCF1C0
:103B2000FF3F04D06FF0004282EA2100704770B579
:103B300000F0C6F84992248000207047F2E710F0A8
:103B4000004248BF4042B0FA80F310FA03F10AD0B5
:103B5000C3F11D0303F580634FEA415002EB0352AA
:103B600002EBD12170474FF000007047DFF848C1E9
:103B700070B51CEA111E1EBF1CEA13159EEA0C0F3D
:103B800095EA0C0F00F06F8081EA030423EA4C13DE
:103B90004EEAD47E21EA4C1141F4801143F48013A3
:103BA000AE44A1FB024CA0FB0365AEF17F7E36194B
:103BB00055EB0C05A1FB034C4CF10003A0FB021CD0
:103BC00016EB0C06654153F10003094218BF46F09D
:103BD000010613F4007F0BD14FEA03314FEA0530A1
:103BE000340341EA155140EA16506FF003020AE02F
:103BF0004FEAC3214FEAC520F40241EA555140EA99
:103C000056506FF0020202EB2E4201EB025585EA9C
:103C1000CE710AD05FEA440C18BF24F0004450F182
:103C2000000041F1000120EAD47040F2FE7C6245C0
:103C300000D270BDA84214BF4FF080444FF0404402
:103C4000002E08BF0024BEF1806FA8BFA1F1C041C3
:103C5000BDE8704080F282804FF0000001F1C04169
:103C600001F0004170479EEA0C0F0CEA131518BFD3
:103C700095EA0C0F06D04FF0000081EA030E0EF01B
:103C8000004170BD00F01CF88900013E00F007B84B
:103C900000F009B84FEA430C5FEA5C5C08D081EAA7
:103CA000030100F05BB84FEA410C5FEA5C5CF6D1BF
:103CB0004FF00000014970470000FF070000F87F47
:103CC0000EF1020E2EF0030E5EF8046B364205D4A0
:103CD000012A43EB030515F5001F12D8012841EB1B
:103CE000010C1CF5001F0CD80ED14FEAD17C15F544
:103CF000001F0CEB4C0C0CF1020C08BF4CEBD37CFE
:103D000004E04FF0080C01E04FEAD37C0CEB4C05CB
:103D100026FA05F606F00706B6F1040C06D20EEBFD
:103D2000860CBDE870404CF0010C6047DFE80CF0F9
:103D3000090B02024FF000414FF00000A1F50021F5
:103D400070BD19461046012851EB010418BFD4F587
:103D5000001484BF002001F0004170BD0808A0F5E8
:103D600000114FEA310170474FF04070E1EE100A48
:103D70007047000610160006101600000000000034
:103D80000000010203040607080900000000010208
:103D9000030400000000C844CDCC4C3E00000000ED
:103DA0000000A0400AD7233C000000000000A04013
:103DB0009A99993E000000000000C84100000000F0
:103DC0000000C03F0000A0400AD7233C00000000D4
:103DD000000061450000A04100000000FC3D00081B
:103DE000000000205C000000C4010008583E0008EC
:103DF0005C000020440F0000E0010008000000000B
:103E00000100000010000000000000000024F40089
:103E100000000000000000000000000000000000A2
:103E2000000000000000000000000000E7416B3AC5
:103E300058A08B3A7D04017C000240AB0341000591
:103E40005308065804070F000810820911000A15CC
:083E5000800B16000C18010D97
:040000050800018965
:00000001FF
